{
  "_format": "hh-sol-artifact-1",
  "contractName": "CrowdfundManager",
  "sourceName": "contracts/CrowdfundManager.sol",
  "abi": [
    {
      "anonymous": false,
      "inputs": [
        {
          "indexed": true,
          "internalType": "uint256",
          "name": "campaignId",
          "type": "uint256"
        },
        {
          "indexed": true,
          "internalType": "address",
          "name": "owner",
          "type": "address"
        },
        {
          "indexed": false,
          "internalType": "uint256",
          "name": "goal",
          "type": "uint256"
        }
      ],
      "name": "CampaignCreated",
      "type": "event"
    },
    {
      "anonymous": false,
      "inputs": [
        {
          "indexed": true,
          "internalType": "uint256",
          "name": "campaignId",
          "type": "uint256"
        },
        {
          "indexed": false,
          "internalType": "uint256",
          "name": "totalRaised",
          "type": "uint256"
        }
      ],
      "name": "CampaignEnded",
      "type": "event"
    },
    {
      "anonymous": false,
      "inputs": [
        {
          "indexed": true,
          "internalType": "uint256",
          "name": "campaignId",
          "type": "uint256"
        },
        {
          "indexed": true,
          "internalType": "address",
          "name": "donor",
          "type": "address"
        },
        {
          "indexed": false,
          "internalType": "uint256",
          "name": "amount",
          "type": "uint256"
        }
      ],
      "name": "DonationReceived",
      "type": "event"
    },
    {
      "inputs": [
        {
          "internalType": "uint256",
          "name": "",
          "type": "uint256"
        }
      ],
      "name": "campaigns",
      "outputs": [
        {
          "internalType": "address",
          "name": "owner",
          "type": "address"
        },
        {
          "internalType": "uint256",
          "name": "goal",
          "type": "uint256"
        },
        {
          "internalType": "uint256",
          "name": "totalRaised",
          "type": "uint256"
        },
        {
          "internalType": "string",
          "name": "title",
          "type": "string"
        },
        {
          "internalType": "string",
          "name": "description",
          "type": "string"
        },
        {
          "internalType": "bool",
          "name": "ended",
          "type": "bool"
        }
      ],
      "stateMutability": "view",
      "type": "function"
    },
    {
      "inputs": [
        {
          "internalType": "uint256",
          "name": "",
          "type": "uint256"
        },
        {
          "internalType": "address",
          "name": "",
          "type": "address"
        }
      ],
      "name": "contributions",
      "outputs": [
        {
          "internalType": "uint256",
          "name": "",
          "type": "uint256"
        }
      ],
      "stateMutability": "view",
      "type": "function"
    },
    {
      "inputs": [
        {
          "internalType": "uint256",
          "name": "_goal",
          "type": "uint256"
        },
        {
          "internalType": "string",
          "name": "_title",
          "type": "string"
        },
        {
          "internalType": "string",
          "name": "_description",
          "type": "string"
        }
      ],
      "name": "createCampaign",
      "outputs": [],
      "stateMutability": "nonpayable",
      "type": "function"
    },
    {
      "inputs": [
        {
          "internalType": "uint256",
          "name": "_campaignId",
          "type": "uint256"
        }
      ],
      "name": "donate",
      "outputs": [],
      "stateMutability": "payable",
      "type": "function"
    },
    {
      "inputs": [
        {
          "internalType": "uint256",
          "name": "_campaignId",
          "type": "uint256"
        }
      ],
      "name": "endCampaign",
      "outputs": [],
      "stateMutability": "nonpayable",
      "type": "function"
    },
    {
      "inputs": [],
      "name": "getCampaignCount",
      "outputs": [
        {
          "internalType": "uint256",
          "name": "",
          "type": "uint256"
        }
      ],
      "stateMutability": "view",
      "type": "function"
    }
  ],
  "bytecode": "0x608060405234801561001057600080fd5b506111fc806100206000396000f3fe6080604052600436106100555760003560e01c8063141961bc1461005a5780633d891f591461009c5780636caa9218146100d9578063dd0408ae14610104578063f14faf6f1461012d578063fad4dee314610149575b600080fd5b34801561006657600080fd5b50610081600480360381019061007c919061092b565b610172565b60405161009396959493929190610a53565b60405180910390f35b3480156100a857600080fd5b506100c360048036038101906100be9190610aee565b6102fb565b6040516100d09190610b2e565b60405180910390f35b3480156100e557600080fd5b506100ee610320565b6040516100fb9190610b2e565b60405180910390f35b34801561011057600080fd5b5061012b6004803603810190610126919061092b565b61032c565b005b6101476004803603810190610142919061092b565b610548565b005b34801561015557600080fd5b50610170600480360381019061016b9190610bae565b6106db565b005b6000818154811061018257600080fd5b90600052602060002090600602016000915090508060000160009054906101000a900473ffffffffffffffffffffffffffffffffffffffff16908060010154908060020154908060030180546101d790610c72565b80601f016020809104026020016040519081016040528092919081815260200182805461020390610c72565b80156102505780601f1061022557610100808354040283529160200191610250565b820191906000526020600020905b81548152906001019060200180831161023357829003601f168201915b50505050509080600401805461026590610c72565b80601f016020809104026020016040519081016040528092919081815260200182805461029190610c72565b80156102de5780601f106102b3576101008083540402835291602001916102de565b820191906000526020600020905b8154815290600101906020018083116102c157829003601f168201915b5050505050908060050160009054906101000a900460ff16905086565b6001602052816000526040600020602052806000526040600020600091509150505481565b60008080549050905090565b6000805490508110610373576040517f08c379a000000000000000000000000000000000000000000000000000000000815260040161036a90610cef565b60405180910390fd5b600080828154811061038857610387610d0f565b5b906000526020600020906006020190508060050160009054906101000a900460ff16156103ea576040517f08c379a00000000000000000000000000000000000000000000000000000000081526004016103e190610d8a565b60405180910390fd5b8060000160009054906101000a900473ffffffffffffffffffffffffffffffffffffffff1673ffffffffffffffffffffffffffffffffffffffff163373ffffffffffffffffffffffffffffffffffffffff161461047c576040517f08c379a000000000000000000000000000000000000000000000000000000000815260040161047390610df6565b60405180910390fd5b60018160050160006101000a81548160ff0219169083151502179055508060000160009054906101000a900473ffffffffffffffffffffffffffffffffffffffff1673ffffffffffffffffffffffffffffffffffffffff166108fc82600201549081150290604051600060405180830381858888f19350505050158015610507573d6000803e3d6000fd5b50817f5a31f5edca5237d41a024875db1596a0ffd609862996afb3af78403ff8122b4f826002015460405161053c9190610b2e565b60405180910390a25050565b600080549050811061058f576040517f08c379a000000000000000000000000000000000000000000000000000000000815260040161058690610cef565b60405180910390fd5b60008082815481106105a4576105a3610d0f565b5b906000526020600020906006020190508060050160009054906101000a900460ff1615610606576040517f08c379a00000000000000000000000000000000000000000000000000000000081526004016105fd90610e62565b60405180910390fd5b3481600201600082825461061a9190610eb1565b92505081905550346001600084815260200190815260200160002060003373ffffffffffffffffffffffffffffffffffffffff1673ffffffffffffffffffffffffffffffffffffffff16815260200190815260200160002060008282546106819190610eb1565b925050819055503373ffffffffffffffffffffffffffffffffffffffff16827f0b5b4c52969ff7329ecf7ee536409fda87812b15a8622bc6e8cdeab3aee14a26346040516106cf9190610b2e565b60405180910390a35050565b60006040518060c001604052803373ffffffffffffffffffffffffffffffffffffffff1681526020018781526020016000815260200186868080601f016020809104026020016040519081016040528093929190818152602001838380828437600081840152601f19601f82011690508083019250505050505050815260200184848080601f016020809104026020016040519081016040528093929190818152602001838380828437600081840152601f19601f82011690508083019250505050505050815260200160001515815250908060018154018082558091505060019003906000526020600020906006020160009091909190915060008201518160000160006101000a81548173ffffffffffffffffffffffffffffffffffffffff021916908373ffffffffffffffffffffffffffffffffffffffff1602179055506020820151816001015560408201518160020155606082015181600301908161084591906110c0565b50608082015181600401908161085b91906110c0565b5060a08201518160050160006101000a81548160ff0219169083151502179055505050600060016000805490506108929190611192565b90503373ffffffffffffffffffffffffffffffffffffffff16817f63e3678c8493a16f8ba43ae9e547231762ca04526dac2c388bd2c26d89401851886040516108db9190610b2e565b60405180910390a3505050505050565b600080fd5b600080fd5b6000819050919050565b610908816108f5565b811461091357600080fd5b50565b600081359050610925816108ff565b92915050565b600060208284031215610941576109406108eb565b5b600061094f84828501610916565b91505092915050565b600073ffffffffffffffffffffffffffffffffffffffff82169050919050565b600061098382610958565b9050919050565b61099381610978565b82525050565b6109a2816108f5565b82525050565b600081519050919050565b600082825260208201905092915050565b60005b838110156109e25780820151818401526020810190506109c7565b60008484015250505050565b6000601f19601f8301169050919050565b6000610a0a826109a8565b610a1481856109b3565b9350610a248185602086016109c4565b610a2d816109ee565b840191505092915050565b60008115159050919050565b610a4d81610a38565b82525050565b600060c082019050610a68600083018961098a565b610a756020830188610999565b610a826040830187610999565b8181036060830152610a9481866109ff565b90508181036080830152610aa881856109ff565b9050610ab760a0830184610a44565b979650505050505050565b610acb81610978565b8114610ad657600080fd5b50565b600081359050610ae881610ac2565b92915050565b60008060408385031215610b0557610b046108eb565b5b6000610b1385828601610916565b9250506020610b2485828601610ad9565b9150509250929050565b6000602082019050610b436000830184610999565b92915050565b600080fd5b600080fd5b600080fd5b60008083601f840112610b6e57610b6d610b49565b5b8235905067ffffffffffffffff811115610b8b57610b8a610b4e565b5b602083019150836001820283011115610ba757610ba6610b53565b5b9250929050565b600080600080600060608688031215610bca57610bc96108eb565b5b6000610bd888828901610916565b955050602086013567ffffffffffffffff811115610bf957610bf86108f0565b5b610c0588828901610b58565b9450945050604086013567ffffffffffffffff811115610c2857610c276108f0565b5b610c3488828901610b58565b92509250509295509295909350565b7f4e487b7100000000000000000000000000000000000000000000000000000000600052602260045260246000fd5b60006002820490506001821680610c8a57607f821691505b602082108103610c9d57610c9c610c43565b5b50919050565b7f496e76616c69642063616d706169676e20494400000000000000000000000000600082015250565b6000610cd96013836109b3565b9150610ce482610ca3565b602082019050919050565b60006020820190508181036000830152610d0881610ccc565b9050919050565b7f4e487b7100000000000000000000000000000000000000000000000000000000600052603260045260246000fd5b7f416c726561647920656e64656400000000000000000000000000000000000000600082015250565b6000610d74600d836109b3565b9150610d7f82610d3e565b602082019050919050565b60006020820190508181036000830152610da381610d67565b9050919050565b7f4e6f74206f776e65720000000000000000000000000000000000000000000000600082015250565b6000610de06009836109b3565b9150610deb82610daa565b602082019050919050565b60006020820190508181036000830152610e0f81610dd3565b9050919050565b7f43616d706169676e20656e646564000000000000000000000000000000000000600082015250565b6000610e4c600e836109b3565b9150610e5782610e16565b602082019050919050565b60006020820190508181036000830152610e7b81610e3f565b9050919050565b7f4e487b7100000000000000000000000000000000000000000000000000000000600052601160045260246000fd5b6000610ebc826108f5565b9150610ec7836108f5565b9250828201905080821115610edf57610ede610e82565b5b92915050565b7f4e487b7100000000000000000000000000000000000000000000000000000000600052604160045260246000fd5b60008190508160005260206000209050919050565b60006020601f8301049050919050565b600082821b905092915050565b600060088302610f767fffffffffffffffffffffffffffffffffffffffffffffffffffffffffffffffff82610f39565b610f808683610f39565b95508019841693508086168417925050509392505050565b6000819050919050565b6000610fbd610fb8610fb3846108f5565b610f98565b6108f5565b9050919050565b6000819050919050565b610fd783610fa2565b610feb610fe382610fc4565b848454610f46565b825550505050565b600090565b611000610ff3565b61100b818484610fce565b505050565b5b8181101561102f57611024600082610ff8565b600181019050611011565b5050565b601f8211156110745761104581610f14565b61104e84610f29565b8101602085101561105d578190505b61107161106985610f29565b830182611010565b50505b505050565b600082821c905092915050565b600061109760001984600802611079565b1980831691505092915050565b60006110b08383611086565b9150826002028217905092915050565b6110c9826109a8565b67ffffffffffffffff8111156110e2576110e1610ee5565b5b6110ec8254610c72565b6110f7828285611033565b600060209050601f83116001811461112a5760008415611118578287015190505b61112285826110a4565b86555061118a565b601f19841661113886610f14565b60005b828110156111605784890151825560018201915060208501945060208101905061113b565b8683101561117d5784890151611179601f891682611086565b8355505b6001600288020188555050505b505050505050565b600061119d826108f5565b91506111a8836108f5565b92508282039050818111156111c0576111bf610e82565b5b9291505056fea264697066735822122082631a42bb9c585c072953d0809cd2db7d9ee10423e2c453db17098eb6c8b22c64736f6c63430008120033",
  "linkReferences": {},
  "deployedLinkReferences": {}
}